{
  "_format": "hh-sol-artifact-1",
  "contractName": "QuestBadge",
  "sourceName": "contracts/QuestBadge.sol",
  "abi": [
    {
      "inputs": [],
      "stateMutability": "nonpayable",
      "type": "constructor"
    },
    {
      "inputs": [
        {
          "internalType": "address",
          "name": "sender",
          "type": "address"
        },
        {
          "internalType": "uint256",
          "name": "tokenId",
          "type": "uint256"
        },
        {
          "internalType": "address",
          "name": "owner",
          "type": "address"
        }
      ],
      "name": "ERC721IncorrectOwner",
      "type": "error"
    },
    {
      "inputs": [
        {
          "internalType": "address",
          "name": "operator",
          "type": "address"
        },
        {
          "internalType": "uint256",
          "name": "tokenId",
          "type": "uint256"
        }
      ],
      "name": "ERC721InsufficientApproval",
      "type": "error"
    },
    {
      "inputs": [
        {
          "internalType": "address",
          "name": "approver",
          "type": "address"
        }
      ],
      "name": "ERC721InvalidApprover",
      "type": "error"
    },
    {
      "inputs": [
        {
          "internalType": "address",
          "name": "operator",
          "type": "address"
        }
      ],
      "name": "ERC721InvalidOperator",
      "type": "error"
    },
    {
      "inputs": [
        {
          "internalType": "address",
          "name": "owner",
          "type": "address"
        }
      ],
      "name": "ERC721InvalidOwner",
      "type": "error"
    },
    {
      "inputs": [
        {
          "internalType": "address",
          "name": "receiver",
          "type": "address"
        }
      ],
      "name": "ERC721InvalidReceiver",
      "type": "error"
    },
    {
      "inputs": [
        {
          "internalType": "address",
          "name": "sender",
          "type": "address"
        }
      ],
      "name": "ERC721InvalidSender",
      "type": "error"
    },
    {
      "inputs": [
        {
          "internalType": "uint256",
          "name": "tokenId",
          "type": "uint256"
        }
      ],
      "name": "ERC721NonexistentToken",
      "type": "error"
    },
    {
      "inputs": [
        {
          "internalType": "address",
          "name": "owner",
          "type": "address"
        }
      ],
      "name": "OwnableInvalidOwner",
      "type": "error"
    },
    {
      "inputs": [
        {
          "internalType": "address",
          "name": "account",
          "type": "address"
        }
      ],
      "name": "OwnableUnauthorizedAccount",
      "type": "error"
    },
    {
      "anonymous": false,
      "inputs": [
        {
          "indexed": true,
          "internalType": "address",
          "name": "owner",
          "type": "address"
        },
        {
          "indexed": true,
          "internalType": "address",
          "name": "approved",
          "type": "address"
        },
        {
          "indexed": true,
          "internalType": "uint256",
          "name": "tokenId",
          "type": "uint256"
        }
      ],
      "name": "Approval",
      "type": "event"
    },
    {
      "anonymous": false,
      "inputs": [
        {
          "indexed": true,
          "internalType": "address",
          "name": "owner",
          "type": "address"
        },
        {
          "indexed": true,
          "internalType": "address",
          "name": "operator",
          "type": "address"
        },
        {
          "indexed": false,
          "internalType": "bool",
          "name": "approved",
          "type": "bool"
        }
      ],
      "name": "ApprovalForAll",
      "type": "event"
    },
    {
      "anonymous": false,
      "inputs": [
        {
          "indexed": false,
          "internalType": "uint256",
          "name": "_fromTokenId",
          "type": "uint256"
        },
        {
          "indexed": false,
          "internalType": "uint256",
          "name": "_toTokenId",
          "type": "uint256"
        }
      ],
      "name": "BatchMetadataUpdate",
      "type": "event"
    },
    {
      "anonymous": false,
      "inputs": [
        {
          "indexed": false,
          "internalType": "uint256",
          "name": "_tokenId",
          "type": "uint256"
        }
      ],
      "name": "MetadataUpdate",
      "type": "event"
    },
    {
      "anonymous": false,
      "inputs": [
        {
          "indexed": true,
          "internalType": "address",
          "name": "previousOwner",
          "type": "address"
        },
        {
          "indexed": true,
          "internalType": "address",
          "name": "newOwner",
          "type": "address"
        }
      ],
      "name": "OwnershipTransferred",
      "type": "event"
    },
    {
      "anonymous": false,
      "inputs": [
        {
          "indexed": true,
          "internalType": "address",
          "name": "from",
          "type": "address"
        },
        {
          "indexed": true,
          "internalType": "address",
          "name": "to",
          "type": "address"
        },
        {
          "indexed": true,
          "internalType": "uint256",
          "name": "tokenId",
          "type": "uint256"
        }
      ],
      "name": "Transfer",
      "type": "event"
    },
    {
      "inputs": [
        {
          "internalType": "address",
          "name": "to",
          "type": "address"
        },
        {
          "internalType": "uint256",
          "name": "tokenId",
          "type": "uint256"
        }
      ],
      "name": "approve",
      "outputs": [],
      "stateMutability": "nonpayable",
      "type": "function"
    },
    {
      "inputs": [
        {
          "internalType": "address",
          "name": "owner",
          "type": "address"
        }
      ],
      "name": "balanceOf",
      "outputs": [
        {
          "internalType": "uint256",
          "name": "",
          "type": "uint256"
        }
      ],
      "stateMutability": "view",
      "type": "function"
    },
    {
      "inputs": [
        {
          "internalType": "uint256",
          "name": "tokenId",
          "type": "uint256"
        }
      ],
      "name": "getApproved",
      "outputs": [
        {
          "internalType": "address",
          "name": "",
          "type": "address"
        }
      ],
      "stateMutability": "view",
      "type": "function"
    },
    {
      "inputs": [
        {
          "internalType": "address",
          "name": "",
          "type": "address"
        }
      ],
      "name": "hasMinted",
      "outputs": [
        {
          "internalType": "bool",
          "name": "",
          "type": "bool"
        }
      ],
      "stateMutability": "view",
      "type": "function"
    },
    {
      "inputs": [
        {
          "internalType": "address",
          "name": "owner",
          "type": "address"
        },
        {
          "internalType": "address",
          "name": "operator",
          "type": "address"
        }
      ],
      "name": "isApprovedForAll",
      "outputs": [
        {
          "internalType": "bool",
          "name": "",
          "type": "bool"
        }
      ],
      "stateMutability": "view",
      "type": "function"
    },
    {
      "inputs": [
        {
          "internalType": "address",
          "name": "player",
          "type": "address"
        },
        {
          "internalType": "string",
          "name": "tokenURI",
          "type": "string"
        }
      ],
      "name": "mintBadge",
      "outputs": [],
      "stateMutability": "nonpayable",
      "type": "function"
    },
    {
      "inputs": [],
      "name": "name",
      "outputs": [
        {
          "internalType": "string",
          "name": "",
          "type": "string"
        }
      ],
      "stateMutability": "view",
      "type": "function"
    },
    {
      "inputs": [],
      "name": "nextTokenId",
      "outputs": [
        {
          "internalType": "uint256",
          "name": "",
          "type": "uint256"
        }
      ],
      "stateMutability": "view",
      "type": "function"
    },
    {
      "inputs": [],
      "name": "owner",
      "outputs": [
        {
          "internalType": "address",
          "name": "",
          "type": "address"
        }
      ],
      "stateMutability": "view",
      "type": "function"
    },
    {
      "inputs": [
        {
          "internalType": "uint256",
          "name": "tokenId",
          "type": "uint256"
        }
      ],
      "name": "ownerOf",
      "outputs": [
        {
          "internalType": "address",
          "name": "",
          "type": "address"
        }
      ],
      "stateMutability": "view",
      "type": "function"
    },
    {
      "inputs": [],
      "name": "renounceOwnership",
      "outputs": [],
      "stateMutability": "nonpayable",
      "type": "function"
    },
    {
      "inputs": [
        {
          "internalType": "address",
          "name": "from",
          "type": "address"
        },
        {
          "internalType": "address",
          "name": "to",
          "type": "address"
        },
        {
          "internalType": "uint256",
          "name": "tokenId",
          "type": "uint256"
        }
      ],
      "name": "safeTransferFrom",
      "outputs": [],
      "stateMutability": "nonpayable",
      "type": "function"
    },
    {
      "inputs": [
        {
          "internalType": "address",
          "name": "from",
          "type": "address"
        },
        {
          "internalType": "address",
          "name": "to",
          "type": "address"
        },
        {
          "internalType": "uint256",
          "name": "tokenId",
          "type": "uint256"
        },
        {
          "internalType": "bytes",
          "name": "data",
          "type": "bytes"
        }
      ],
      "name": "safeTransferFrom",
      "outputs": [],
      "stateMutability": "nonpayable",
      "type": "function"
    },
    {
      "inputs": [
        {
          "internalType": "address",
          "name": "operator",
          "type": "address"
        },
        {
          "internalType": "bool",
          "name": "approved",
          "type": "bool"
        }
      ],
      "name": "setApprovalForAll",
      "outputs": [],
      "stateMutability": "nonpayable",
      "type": "function"
    },
    {
      "inputs": [
        {
          "internalType": "bytes4",
          "name": "interfaceId",
          "type": "bytes4"
        }
      ],
      "name": "supportsInterface",
      "outputs": [
        {
          "internalType": "bool",
          "name": "",
          "type": "bool"
        }
      ],
      "stateMutability": "view",
      "type": "function"
    },
    {
      "inputs": [],
      "name": "symbol",
      "outputs": [
        {
          "internalType": "string",
          "name": "",
          "type": "string"
        }
      ],
      "stateMutability": "view",
      "type": "function"
    },
    {
      "inputs": [
        {
          "internalType": "uint256",
          "name": "tokenId",
          "type": "uint256"
        }
      ],
      "name": "tokenURI",
      "outputs": [
        {
          "internalType": "string",
          "name": "",
          "type": "string"
        }
      ],
      "stateMutability": "view",
      "type": "function"
    },
    {
      "inputs": [
        {
          "internalType": "address",
          "name": "from",
          "type": "address"
        },
        {
          "internalType": "address",
          "name": "to",
          "type": "address"
        },
        {
          "internalType": "uint256",
          "name": "tokenId",
          "type": "uint256"
        }
      ],
      "name": "transferFrom",
      "outputs": [],
      "stateMutability": "nonpayable",
      "type": "function"
    },
    {
      "inputs": [
        {
          "internalType": "address",
          "name": "newOwner",
          "type": "address"
        }
      ],
      "name": "transferOwnership",
      "outputs": [],
      "stateMutability": "nonpayable",
      "type": "function"
    }
  ],
  "bytecode": "0x608060405234801561001057600080fd5b50336040518060400160405280600a8152602001695175657374426164676560b01b815250604051806040016040528060048152602001635142444760e01b8152508160009081610061919061019f565b50600161006e828261019f565b5050506001600160a01b03811661009f57604051631e4fbdf760e01b81526000600482015260240160405180910390fd5b6100a8816100ae565b5061025d565b600780546001600160a01b038381166001600160a01b0319831681179093556040519116919082907f8be0079c531659141344cd1fd0a4f28419497f9722a3daafe3b4186f6b6457e090600090a35050565b634e487b7160e01b600052604160045260246000fd5b600181811c9082168061012a57607f821691505b60208210810361014a57634e487b7160e01b600052602260045260246000fd5b50919050565b601f82111561019a57806000526020600020601f840160051c810160208510156101775750805b601f840160051c820191505b818110156101975760008155600101610183565b50505b505050565b81516001600160401b038111156101b8576101b8610100565b6101cc816101c68454610116565b84610150565b6020601f82116001811461020057600083156101e85750848201515b600019600385901b1c1916600184901b178455610197565b600084815260208120601f198516915b828110156102305787850151825560209485019460019092019101610210565b508482101561024e5786840151600019600387901b60f8161c191681555b50505050600190811b01905550565b6114f68061026c6000396000f3fe608060405234801561001057600080fd5b50600436106101215760003560e01c806370a08231116100ad578063a22cb46511610071578063a22cb4651461025d578063b88d4fde14610270578063c87b56dd14610283578063e985e9c514610296578063f2fde38b146102a957600080fd5b806370a0823114610212578063715018a61461023357806375794a3c1461023b5780638da5cb5b1461024457806395d89b411461025557600080fd5b806323b872dd116100f457806323b872dd146101a357806338e21cce146101b657806342842e0e146101d95780636352211e146101ec5780636b2bafc8146101ff57600080fd5b806301ffc9a71461012657806306fdde031461014e578063081812fc14610163578063095ea7b31461018e575b600080fd5b610139610134366004610fbc565b6102bc565b60405190151581526020015b60405180910390f35b6101566102e7565b6040516101459190611029565b61017661017136600461103c565b610379565b6040516001600160a01b039091168152602001610145565b6101a161019c366004611071565b6103a2565b005b6101a16101b136600461109b565b6103b1565b6101396101c43660046110d8565b60096020526000908152604090205460ff1681565b6101a16101e736600461109b565b610441565b6101766101fa36600461103c565b610461565b6101a161020d366004611183565b61046c565b6102256102203660046110d8565b61052f565b604051908152602001610145565b6101a1610577565b61022560085481565b6007546001600160a01b0316610176565b61015661058b565b6101a161026b3660046111e5565b61059a565b6101a161027e366004611221565b6105a5565b61015661029136600461103c565b6105bd565b6101396102a436600461129d565b6106ce565b6101a16102b73660046110d8565b6106fc565b60006001600160e01b03198216632483248360e11b14806102e157506102e18261073a565b92915050565b6060600080546102f6906112d0565b80601f0160208091040260200160405190810160405280929190818152602001828054610322906112d0565b801561036f5780601f106103445761010080835404028352916020019161036f565b820191906000526020600020905b81548152906001019060200180831161035257829003601f168201915b5050505050905090565b60006103848261078a565b506000828152600460205260409020546001600160a01b03166102e1565b6103ad8282336107c3565b5050565b6001600160a01b0382166103e057604051633250574960e11b8152600060048201526024015b60405180910390fd5b60006103ed8383336107d0565b9050836001600160a01b0316816001600160a01b03161461043b576040516364283d7b60e01b81526001600160a01b03808616600483015260248201849052821660448201526064016103d7565b50505050565b61045c838383604051806020016040528060008152506105a5565b505050565b60006102e18261078a565b6104746108c9565b6001600160a01b03821660009081526009602052604090205460ff16156104dd5760405162461bcd60e51b815260206004820152601d60248201527f506c6179657220616c726561647920726563656976656420626164676500000060448201526064016103d7565b6008546104ea83826108f6565b6104f48183610910565b6001600160a01b0383166000908152600960205260408120805460ff1916600117905560088054916105258361130a565b9190505550505050565b60006001600160a01b03821661055b576040516322718ad960e21b8152600060048201526024016103d7565b506001600160a01b031660009081526003602052604090205490565b61057f6108c9565b6105896000610960565b565b6060600180546102f6906112d0565b6103ad3383836109b2565b6105b08484846103b1565b61043b3385858585610a51565b60606105c88261078a565b50600082815260066020526040812080546105e2906112d0565b80601f016020809104026020016040519081016040528092919081815260200182805461060e906112d0565b801561065b5780601f106106305761010080835404028352916020019161065b565b820191906000526020600020905b81548152906001019060200180831161063e57829003601f168201915b50505050509050600061067960408051602081019091526000815290565b9050805160000361068b575092915050565b8151156106bd5780826040516020016106a5929190611331565b60405160208183030381529060405292505050919050565b6106c684610b7c565b949350505050565b6001600160a01b03918216600090815260056020908152604080832093909416825291909152205460ff1690565b6107046108c9565b6001600160a01b03811661072e57604051631e4fbdf760e01b8152600060048201526024016103d7565b61073781610960565b50565b60006001600160e01b031982166380ac58cd60e01b148061076b57506001600160e01b03198216635b5e139f60e01b145b806102e157506301ffc9a760e01b6001600160e01b03198316146102e1565b6000818152600260205260408120546001600160a01b0316806102e157604051637e27328960e01b8152600481018490526024016103d7565b61045c8383836001610bf1565b6000828152600260205260408120546001600160a01b03908116908316156107fd576107fd818486610cf7565b6001600160a01b0381161561083b5761081a600085600080610bf1565b6001600160a01b038116600090815260036020526040902080546000190190555b6001600160a01b0385161561086a576001600160a01b0385166000908152600360205260409020805460010190555b60008481526002602052604080822080546001600160a01b0319166001600160a01b0389811691821790925591518793918516917fddf252ad1be2c89b69c2b068fc378daa952ba7f163c4a11628f55a4df523b3ef91a4949350505050565b6007546001600160a01b031633146105895760405163118cdaa760e01b81523360048201526024016103d7565b6103ad828260405180602001604052806000815250610d5b565b600082815260066020526040902061092882826113a7565b506040518281527ff8e1a15aba9398e019f0b49df1a4fde98ee17ae345cb5f6b5e2c27f5033e8ce79060200160405180910390a15050565b600780546001600160a01b038381166001600160a01b0319831681179093556040519116919082907f8be0079c531659141344cd1fd0a4f28419497f9722a3daafe3b4186f6b6457e090600090a35050565b6001600160a01b0382166109e457604051630b61174360e31b81526001600160a01b03831660048201526024016103d7565b6001600160a01b03838116600081815260056020908152604080832094871680845294825291829020805460ff191686151590811790915591519182527f17307eab39ab6107e8899845ad3d59bd9653f200f220920489ca2b5937696c31910160405180910390a3505050565b6001600160a01b0383163b15610b7557604051630a85bd0160e11b81526001600160a01b0384169063150b7a0290610a93908890889087908790600401611466565b6020604051808303816000875af1925050508015610ace575060408051601f3d908101601f19168201909252610acb918101906114a3565b60015b610b37573d808015610afc576040519150601f19603f3d011682016040523d82523d6000602084013e610b01565b606091505b508051600003610b2f57604051633250574960e11b81526001600160a01b03851660048201526024016103d7565b805181602001fd5b6001600160e01b03198116630a85bd0160e11b14610b7357604051633250574960e11b81526001600160a01b03851660048201526024016103d7565b505b5050505050565b6060610b878261078a565b506000610b9f60408051602081019091526000815290565b90506000815111610bbf5760405180602001604052806000815250610bea565b80610bc984610d73565b604051602001610bda929190611331565b6040516020818303038152906040525b9392505050565b8080610c0557506001600160a01b03821615155b15610cc7576000610c158461078a565b90506001600160a01b03831615801590610c415750826001600160a01b0316816001600160a01b031614155b8015610c545750610c5281846106ce565b155b15610c7d5760405163a9fbf51f60e01b81526001600160a01b03841660048201526024016103d7565b8115610cc55783856001600160a01b0316826001600160a01b03167f8c5be1e5ebec7d5bd14f71427d1e84f3dd0314c0f7b2291e5b200ac8c7c3b92560405160405180910390a45b505b5050600090815260046020526040902080546001600160a01b0319166001600160a01b0392909216919091179055565b610d02838383610e06565b61045c576001600160a01b038316610d3057604051637e27328960e01b8152600481018290526024016103d7565b60405163177e802f60e01b81526001600160a01b0383166004820152602481018290526044016103d7565b610d658383610e69565b61045c336000858585610a51565b60606000610d8083610ece565b600101905060008167ffffffffffffffff811115610da057610da06110f3565b6040519080825280601f01601f191660200182016040528015610dca576020820181803683370190505b5090508181016020015b600019016f181899199a1a9b1b9c1cb0b131b232b360811b600a86061a8153600a8504945084610dd457509392505050565b60006001600160a01b038316158015906106c65750826001600160a01b0316846001600160a01b03161480610e405750610e4084846106ce565b806106c65750506000908152600460205260409020546001600160a01b03908116911614919050565b6001600160a01b038216610e9357604051633250574960e11b8152600060048201526024016103d7565b6000610ea1838360006107d0565b90506001600160a01b0381161561045c576040516339e3563760e11b8152600060048201526024016103d7565b60008072184f03e93ff9f4daa797ed6e38ed64bf6a1f0160401b8310610f0d5772184f03e93ff9f4daa797ed6e38ed64bf6a1f0160401b830492506040015b6d04ee2d6d415b85acef81000000008310610f39576d04ee2d6d415b85acef8100000000830492506020015b662386f26fc100008310610f5757662386f26fc10000830492506010015b6305f5e1008310610f6f576305f5e100830492506008015b6127108310610f8357612710830492506004015b60648310610f95576064830492506002015b600a83106102e15760010192915050565b6001600160e01b03198116811461073757600080fd5b600060208284031215610fce57600080fd5b8135610bea81610fa6565b60005b83811015610ff4578181015183820152602001610fdc565b50506000910152565b60008151808452611015816020860160208601610fd9565b601f01601f19169290920160200192915050565b602081526000610bea6020830184610ffd565b60006020828403121561104e57600080fd5b5035919050565b80356001600160a01b038116811461106c57600080fd5b919050565b6000806040838503121561108457600080fd5b61108d83611055565b946020939093013593505050565b6000806000606084860312156110b057600080fd5b6110b984611055565b92506110c760208501611055565b929592945050506040919091013590565b6000602082840312156110ea57600080fd5b610bea82611055565b634e487b7160e01b600052604160045260246000fd5b60008067ffffffffffffffff841115611124576111246110f3565b50604051601f19601f85018116603f0116810181811067ffffffffffffffff82111715611153576111536110f3565b60405283815290508082840185101561116b57600080fd5b83836020830137600060208583010152509392505050565b6000806040838503121561119657600080fd5b61119f83611055565b9150602083013567ffffffffffffffff8111156111bb57600080fd5b8301601f810185136111cc57600080fd5b6111db85823560208401611109565b9150509250929050565b600080604083850312156111f857600080fd5b61120183611055565b91506020830135801515811461121657600080fd5b809150509250929050565b6000806000806080858703121561123757600080fd5b61124085611055565b935061124e60208601611055565b925060408501359150606085013567ffffffffffffffff81111561127157600080fd5b8501601f8101871361128257600080fd5b61129187823560208401611109565b91505092959194509250565b600080604083850312156112b057600080fd5b6112b983611055565b91506112c760208401611055565b90509250929050565b600181811c908216806112e457607f821691505b60208210810361130457634e487b7160e01b600052602260045260246000fd5b50919050565b60006001820161132a57634e487b7160e01b600052601160045260246000fd5b5060010190565b60008351611343818460208801610fd9565b835190830190611357818360208801610fd9565b01949350505050565b601f82111561045c57806000526020600020601f840160051c810160208510156113875750805b601f840160051c820191505b81811015610b755760008155600101611393565b815167ffffffffffffffff8111156113c1576113c16110f3565b6113d5816113cf84546112d0565b84611360565b6020601f82116001811461140957600083156113f15750848201515b600019600385901b1c1916600184901b178455610b75565b600084815260208120601f198516915b828110156114395787850151825560209485019460019092019101611419565b50848210156114575786840151600019600387901b60f8161c191681555b50505050600190811b01905550565b6001600160a01b038581168252841660208201526040810183905260806060820181905260009061149990830184610ffd565b9695505050505050565b6000602082840312156114b557600080fd5b8151610bea81610fa656fea264697066735822122049cb98a41f475abeb0f0dff9803230b9be11fb53e908343e85f856346f5d8cf464736f6c634300081c0033",
  "linkReferences": {},
  "deployedLinkReferences": {}
}