{
  "_format": "hh-sol-artifact-1",
  "contractName": "QuestBadge",
  "sourceName": "contracts/QuestBadge.sol",
  "abi": [
    {
      "inputs": [
        {
          "internalType": "address",
          "name": "initialOwner",
          "type": "address"
        }
      ],
      "stateMutability": "nonpayable",
      "type": "constructor"
    },
    {
      "inputs": [
        {
          "internalType": "address",
          "name": "sender",
          "type": "address"
        },
        {
          "internalType": "uint256",
          "name": "tokenId",
          "type": "uint256"
        },
        {
          "internalType": "address",
          "name": "owner",
          "type": "address"
        }
      ],
      "name": "ERC721IncorrectOwner",
      "type": "error"
    },
    {
      "inputs": [
        {
          "internalType": "address",
          "name": "operator",
          "type": "address"
        },
        {
          "internalType": "uint256",
          "name": "tokenId",
          "type": "uint256"
        }
      ],
      "name": "ERC721InsufficientApproval",
      "type": "error"
    },
    {
      "inputs": [
        {
          "internalType": "address",
          "name": "approver",
          "type": "address"
        }
      ],
      "name": "ERC721InvalidApprover",
      "type": "error"
    },
    {
      "inputs": [
        {
          "internalType": "address",
          "name": "operator",
          "type": "address"
        }
      ],
      "name": "ERC721InvalidOperator",
      "type": "error"
    },
    {
      "inputs": [
        {
          "internalType": "address",
          "name": "owner",
          "type": "address"
        }
      ],
      "name": "ERC721InvalidOwner",
      "type": "error"
    },
    {
      "inputs": [
        {
          "internalType": "address",
          "name": "receiver",
          "type": "address"
        }
      ],
      "name": "ERC721InvalidReceiver",
      "type": "error"
    },
    {
      "inputs": [
        {
          "internalType": "address",
          "name": "sender",
          "type": "address"
        }
      ],
      "name": "ERC721InvalidSender",
      "type": "error"
    },
    {
      "inputs": [
        {
          "internalType": "uint256",
          "name": "tokenId",
          "type": "uint256"
        }
      ],
      "name": "ERC721NonexistentToken",
      "type": "error"
    },
    {
      "inputs": [
        {
          "internalType": "address",
          "name": "owner",
          "type": "address"
        }
      ],
      "name": "OwnableInvalidOwner",
      "type": "error"
    },
    {
      "inputs": [
        {
          "internalType": "address",
          "name": "account",
          "type": "address"
        }
      ],
      "name": "OwnableUnauthorizedAccount",
      "type": "error"
    },
    {
      "anonymous": false,
      "inputs": [
        {
          "indexed": true,
          "internalType": "address",
          "name": "owner",
          "type": "address"
        },
        {
          "indexed": true,
          "internalType": "address",
          "name": "approved",
          "type": "address"
        },
        {
          "indexed": true,
          "internalType": "uint256",
          "name": "tokenId",
          "type": "uint256"
        }
      ],
      "name": "Approval",
      "type": "event"
    },
    {
      "anonymous": false,
      "inputs": [
        {
          "indexed": true,
          "internalType": "address",
          "name": "owner",
          "type": "address"
        },
        {
          "indexed": true,
          "internalType": "address",
          "name": "operator",
          "type": "address"
        },
        {
          "indexed": false,
          "internalType": "bool",
          "name": "approved",
          "type": "bool"
        }
      ],
      "name": "ApprovalForAll",
      "type": "event"
    },
    {
      "anonymous": false,
      "inputs": [
        {
          "indexed": false,
          "internalType": "uint256",
          "name": "_fromTokenId",
          "type": "uint256"
        },
        {
          "indexed": false,
          "internalType": "uint256",
          "name": "_toTokenId",
          "type": "uint256"
        }
      ],
      "name": "BatchMetadataUpdate",
      "type": "event"
    },
    {
      "anonymous": false,
      "inputs": [
        {
          "indexed": false,
          "internalType": "uint256",
          "name": "_tokenId",
          "type": "uint256"
        }
      ],
      "name": "MetadataUpdate",
      "type": "event"
    },
    {
      "anonymous": false,
      "inputs": [
        {
          "indexed": true,
          "internalType": "address",
          "name": "previousOwner",
          "type": "address"
        },
        {
          "indexed": true,
          "internalType": "address",
          "name": "newOwner",
          "type": "address"
        }
      ],
      "name": "OwnershipTransferred",
      "type": "event"
    },
    {
      "anonymous": false,
      "inputs": [
        {
          "indexed": true,
          "internalType": "address",
          "name": "from",
          "type": "address"
        },
        {
          "indexed": true,
          "internalType": "address",
          "name": "to",
          "type": "address"
        },
        {
          "indexed": true,
          "internalType": "uint256",
          "name": "tokenId",
          "type": "uint256"
        }
      ],
      "name": "Transfer",
      "type": "event"
    },
    {
      "inputs": [
        {
          "internalType": "address",
          "name": "to",
          "type": "address"
        },
        {
          "internalType": "uint256",
          "name": "tokenId",
          "type": "uint256"
        }
      ],
      "name": "approve",
      "outputs": [],
      "stateMutability": "nonpayable",
      "type": "function"
    },
    {
      "inputs": [
        {
          "internalType": "address",
          "name": "owner",
          "type": "address"
        }
      ],
      "name": "balanceOf",
      "outputs": [
        {
          "internalType": "uint256",
          "name": "",
          "type": "uint256"
        }
      ],
      "stateMutability": "view",
      "type": "function"
    },
    {
      "inputs": [
        {
          "internalType": "uint256",
          "name": "tokenId",
          "type": "uint256"
        }
      ],
      "name": "getApproved",
      "outputs": [
        {
          "internalType": "address",
          "name": "",
          "type": "address"
        }
      ],
      "stateMutability": "view",
      "type": "function"
    },
    {
      "inputs": [
        {
          "internalType": "address",
          "name": "owner",
          "type": "address"
        },
        {
          "internalType": "address",
          "name": "operator",
          "type": "address"
        }
      ],
      "name": "isApprovedForAll",
      "outputs": [
        {
          "internalType": "bool",
          "name": "",
          "type": "bool"
        }
      ],
      "stateMutability": "view",
      "type": "function"
    },
    {
      "inputs": [
        {
          "internalType": "address",
          "name": "player",
          "type": "address"
        },
        {
          "internalType": "string",
          "name": "uri",
          "type": "string"
        }
      ],
      "name": "mintBadge",
      "outputs": [],
      "stateMutability": "nonpayable",
      "type": "function"
    },
    {
      "inputs": [],
      "name": "name",
      "outputs": [
        {
          "internalType": "string",
          "name": "",
          "type": "string"
        }
      ],
      "stateMutability": "view",
      "type": "function"
    },
    {
      "inputs": [],
      "name": "owner",
      "outputs": [
        {
          "internalType": "address",
          "name": "",
          "type": "address"
        }
      ],
      "stateMutability": "view",
      "type": "function"
    },
    {
      "inputs": [
        {
          "internalType": "uint256",
          "name": "tokenId",
          "type": "uint256"
        }
      ],
      "name": "ownerOf",
      "outputs": [
        {
          "internalType": "address",
          "name": "",
          "type": "address"
        }
      ],
      "stateMutability": "view",
      "type": "function"
    },
    {
      "inputs": [],
      "name": "renounceOwnership",
      "outputs": [],
      "stateMutability": "nonpayable",
      "type": "function"
    },
    {
      "inputs": [
        {
          "internalType": "address",
          "name": "from",
          "type": "address"
        },
        {
          "internalType": "address",
          "name": "to",
          "type": "address"
        },
        {
          "internalType": "uint256",
          "name": "tokenId",
          "type": "uint256"
        }
      ],
      "name": "safeTransferFrom",
      "outputs": [],
      "stateMutability": "nonpayable",
      "type": "function"
    },
    {
      "inputs": [
        {
          "internalType": "address",
          "name": "from",
          "type": "address"
        },
        {
          "internalType": "address",
          "name": "to",
          "type": "address"
        },
        {
          "internalType": "uint256",
          "name": "tokenId",
          "type": "uint256"
        },
        {
          "internalType": "bytes",
          "name": "data",
          "type": "bytes"
        }
      ],
      "name": "safeTransferFrom",
      "outputs": [],
      "stateMutability": "nonpayable",
      "type": "function"
    },
    {
      "inputs": [
        {
          "internalType": "address",
          "name": "operator",
          "type": "address"
        },
        {
          "internalType": "bool",
          "name": "approved",
          "type": "bool"
        }
      ],
      "name": "setApprovalForAll",
      "outputs": [],
      "stateMutability": "nonpayable",
      "type": "function"
    },
    {
      "inputs": [
        {
          "internalType": "bytes4",
          "name": "interfaceId",
          "type": "bytes4"
        }
      ],
      "name": "supportsInterface",
      "outputs": [
        {
          "internalType": "bool",
          "name": "",
          "type": "bool"
        }
      ],
      "stateMutability": "view",
      "type": "function"
    },
    {
      "inputs": [],
      "name": "symbol",
      "outputs": [
        {
          "internalType": "string",
          "name": "",
          "type": "string"
        }
      ],
      "stateMutability": "view",
      "type": "function"
    },
    {
      "inputs": [
        {
          "internalType": "uint256",
          "name": "tokenId",
          "type": "uint256"
        }
      ],
      "name": "tokenURI",
      "outputs": [
        {
          "internalType": "string",
          "name": "",
          "type": "string"
        }
      ],
      "stateMutability": "view",
      "type": "function"
    },
    {
      "inputs": [
        {
          "internalType": "address",
          "name": "from",
          "type": "address"
        },
        {
          "internalType": "address",
          "name": "to",
          "type": "address"
        },
        {
          "internalType": "uint256",
          "name": "tokenId",
          "type": "uint256"
        }
      ],
      "name": "transferFrom",
      "outputs": [],
      "stateMutability": "nonpayable",
      "type": "function"
    },
    {
      "inputs": [
        {
          "internalType": "address",
          "name": "newOwner",
          "type": "address"
        }
      ],
      "name": "transferOwnership",
      "outputs": [],
      "stateMutability": "nonpayable",
      "type": "function"
    }
  ],
  "bytecode": "0x608060405234801561001057600080fd5b506040516116b63803806116b683398101604081905261002f9161011d565b806040518060400160405280600a8152602001695175657374426164676560b01b8152506040518060400160405280600281526020016128a160f11b815250816000908161007d91906101ec565b50600161008a82826101ec565b5050506001600160a01b0381166100bb57604051631e4fbdf760e01b81526000600482015260240160405180910390fd5b6100c4816100cb565b50506102aa565b600780546001600160a01b038381166001600160a01b0319831681179093556040519116919082907f8be0079c531659141344cd1fd0a4f28419497f9722a3daafe3b4186f6b6457e090600090a35050565b60006020828403121561012f57600080fd5b81516001600160a01b038116811461014657600080fd5b9392505050565b634e487b7160e01b600052604160045260246000fd5b600181811c9082168061017757607f821691505b60208210810361019757634e487b7160e01b600052602260045260246000fd5b50919050565b601f8211156101e757806000526020600020601f840160051c810160208510156101c45750805b601f840160051c820191505b818110156101e457600081556001016101d0565b50505b505050565b81516001600160401b038111156102055761020561014d565b610219816102138454610163565b8461019d565b6020601f82116001811461024d57600083156102355750848201515b600019600385901b1c1916600184901b1784556101e4565b600084815260208120601f198516915b8281101561027d578785015182556020948501946001909201910161025d565b508482101561029b5786840151600019600387901b60f8161c191681555b50505050600190811b01905550565b6113fd806102b96000396000f3fe608060405234801561001057600080fd5b506004361061010b5760003560e01c806370a08231116100a2578063a22cb46511610071578063a22cb4651461021b578063b88d4fde1461022e578063c87b56dd14610241578063e985e9c514610254578063f2fde38b1461026757600080fd5b806370a08231146101d9578063715018a6146101fa5780638da5cb5b1461020257806395d89b411461021357600080fd5b806323b872dd116100de57806323b872dd1461018d57806342842e0e146101a05780636352211e146101b35780636b2bafc8146101c657600080fd5b806301ffc9a71461011057806306fdde0314610138578063081812fc1461014d578063095ea7b314610178575b600080fd5b61012361011e366004610ec3565b61027a565b60405190151581526020015b60405180910390f35b6101406102a5565b60405161012f9190610f30565b61016061015b366004610f43565b610337565b6040516001600160a01b03909116815260200161012f565b61018b610186366004610f78565b610360565b005b61018b61019b366004610fa2565b61036f565b61018b6101ae366004610fa2565b6103ff565b6101606101c1366004610f43565b61041f565b61018b6101d436600461106f565b61042a565b6101ec6101e73660046110d1565b61045d565b60405190815260200161012f565b61018b6104a5565b6007546001600160a01b0316610160565b6101406104b9565b61018b6102293660046110ec565b6104c8565b61018b61023c366004611128565b6104d3565b61014061024f366004610f43565b6104eb565b6101236102623660046111a4565b6104f6565b61018b6102753660046110d1565b610524565b60006001600160e01b03198216632483248360e11b148061029f575061029f82610562565b92915050565b6060600080546102b4906111d7565b80601f01602080910402602001604051908101604052809291908181526020018280546102e0906111d7565b801561032d5780601f106103025761010080835404028352916020019161032d565b820191906000526020600020905b81548152906001019060200180831161031057829003601f168201915b5050505050905090565b6000610342826105b2565b506000828152600460205260409020546001600160a01b031661029f565b61036b8282336105eb565b5050565b6001600160a01b03821661039e57604051633250574960e11b8152600060048201526024015b60405180910390fd5b60006103ab8383336105f8565b9050836001600160a01b0316816001600160a01b0316146103f9576040516364283d7b60e01b81526001600160a01b0380861660048301526024820184905282166044820152606401610395565b50505050565b61041a838383604051806020016040528060008152506104d3565b505050565b600061029f826105b2565b6104326106f1565b60088054908190600061044483611211565b9190505550610453838261071e565b61041a8183610783565b60006001600160a01b038216610489576040516322718ad960e21b815260006004820152602401610395565b506001600160a01b031660009081526003602052604090205490565b6104ad6106f1565b6104b760006107d3565b565b6060600180546102b4906111d7565b61036b338383610825565b6104de84848461036f565b6103f933858585856108c4565b606061029f826109ef565b6001600160a01b03918216600090815260056020908152604080832093909416825291909152205460ff1690565b61052c6106f1565b6001600160a01b03811661055657604051631e4fbdf760e01b815260006004820152602401610395565b61055f816107d3565b50565b60006001600160e01b031982166380ac58cd60e01b148061059357506001600160e01b03198216635b5e139f60e01b145b8061029f57506301ffc9a760e01b6001600160e01b031983161461029f565b6000818152600260205260408120546001600160a01b03168061029f57604051637e27328960e01b815260048101849052602401610395565b61041a8383836001610b00565b6000828152600260205260408120546001600160a01b039081169083161561062557610625818486610c06565b6001600160a01b0381161561066357610642600085600080610b00565b6001600160a01b038116600090815260036020526040902080546000190190555b6001600160a01b03851615610692576001600160a01b0385166000908152600360205260409020805460010190555b60008481526002602052604080822080546001600160a01b0319166001600160a01b0389811691821790925591518793918516917fddf252ad1be2c89b69c2b068fc378daa952ba7f163c4a11628f55a4df523b3ef91a4949350505050565b6007546001600160a01b031633146104b75760405163118cdaa760e01b8152336004820152602401610395565b6001600160a01b03821661074857604051633250574960e11b815260006004820152602401610395565b6000610756838360006105f8565b90506001600160a01b0381161561041a576040516339e3563760e11b815260006004820152602401610395565b600082815260066020526040902061079b828261127f565b506040518281527ff8e1a15aba9398e019f0b49df1a4fde98ee17ae345cb5f6b5e2c27f5033e8ce79060200160405180910390a15050565b600780546001600160a01b038381166001600160a01b0319831681179093556040519116919082907f8be0079c531659141344cd1fd0a4f28419497f9722a3daafe3b4186f6b6457e090600090a35050565b6001600160a01b03821661085757604051630b61174360e31b81526001600160a01b0383166004820152602401610395565b6001600160a01b03838116600081815260056020908152604080832094871680845294825291829020805460ff191686151590811790915591519182527f17307eab39ab6107e8899845ad3d59bd9653f200f220920489ca2b5937696c31910160405180910390a3505050565b6001600160a01b0383163b156109e857604051630a85bd0160e11b81526001600160a01b0384169063150b7a029061090690889088908790879060040161133e565b6020604051808303816000875af1925050508015610941575060408051601f3d908101601f1916820190925261093e9181019061137b565b60015b6109aa573d80801561096f576040519150601f19603f3d011682016040523d82523d6000602084013e610974565b606091505b5080516000036109a257604051633250574960e11b81526001600160a01b0385166004820152602401610395565b805181602001fd5b6001600160e01b03198116630a85bd0160e11b146109e657604051633250574960e11b81526001600160a01b0385166004820152602401610395565b505b5050505050565b60606109fa826105b2565b5060008281526006602052604081208054610a14906111d7565b80601f0160208091040260200160405190810160405280929190818152602001828054610a40906111d7565b8015610a8d5780601f10610a6257610100808354040283529160200191610a8d565b820191906000526020600020905b815481529060010190602001808311610a7057829003601f168201915b505050505090506000610aab60408051602081019091526000815290565b90508051600003610abd575092915050565b815115610aef578082604051602001610ad7929190611398565b60405160208183030381529060405292505050919050565b610af884610c6a565b949350505050565b8080610b1457506001600160a01b03821615155b15610bd6576000610b24846105b2565b90506001600160a01b03831615801590610b505750826001600160a01b0316816001600160a01b031614155b8015610b635750610b6181846104f6565b155b15610b8c5760405163a9fbf51f60e01b81526001600160a01b0384166004820152602401610395565b8115610bd45783856001600160a01b0316826001600160a01b03167f8c5be1e5ebec7d5bd14f71427d1e84f3dd0314c0f7b2291e5b200ac8c7c3b92560405160405180910390a45b505b5050600090815260046020526040902080546001600160a01b0319166001600160a01b0392909216919091179055565b610c11838383610cdf565b61041a576001600160a01b038316610c3f57604051637e27328960e01b815260048101829052602401610395565b60405163177e802f60e01b81526001600160a01b038316600482015260248101829052604401610395565b6060610c75826105b2565b506000610c8d60408051602081019091526000815290565b90506000815111610cad5760405180602001604052806000815250610cd8565b80610cb784610d42565b604051602001610cc8929190611398565b6040516020818303038152906040525b9392505050565b60006001600160a01b03831615801590610af85750826001600160a01b0316846001600160a01b03161480610d195750610d1984846104f6565b80610af85750506000908152600460205260409020546001600160a01b03908116911614919050565b60606000610d4f83610dd5565b600101905060008167ffffffffffffffff811115610d6f57610d6f610fdf565b6040519080825280601f01601f191660200182016040528015610d99576020820181803683370190505b5090508181016020015b600019016f181899199a1a9b1b9c1cb0b131b232b360811b600a86061a8153600a8504945084610da357509392505050565b60008072184f03e93ff9f4daa797ed6e38ed64bf6a1f0160401b8310610e145772184f03e93ff9f4daa797ed6e38ed64bf6a1f0160401b830492506040015b6d04ee2d6d415b85acef81000000008310610e40576d04ee2d6d415b85acef8100000000830492506020015b662386f26fc100008310610e5e57662386f26fc10000830492506010015b6305f5e1008310610e76576305f5e100830492506008015b6127108310610e8a57612710830492506004015b60648310610e9c576064830492506002015b600a831061029f5760010192915050565b6001600160e01b03198116811461055f57600080fd5b600060208284031215610ed557600080fd5b8135610cd881610ead565b60005b83811015610efb578181015183820152602001610ee3565b50506000910152565b60008151808452610f1c816020860160208601610ee0565b601f01601f19169290920160200192915050565b602081526000610cd86020830184610f04565b600060208284031215610f5557600080fd5b5035919050565b80356001600160a01b0381168114610f7357600080fd5b919050565b60008060408385031215610f8b57600080fd5b610f9483610f5c565b946020939093013593505050565b600080600060608486031215610fb757600080fd5b610fc084610f5c565b9250610fce60208501610f5c565b929592945050506040919091013590565b634e487b7160e01b600052604160045260246000fd5b60008067ffffffffffffffff84111561101057611010610fdf565b50604051601f19601f85018116603f0116810181811067ffffffffffffffff8211171561103f5761103f610fdf565b60405283815290508082840185101561105757600080fd5b83836020830137600060208583010152509392505050565b6000806040838503121561108257600080fd5b61108b83610f5c565b9150602083013567ffffffffffffffff8111156110a757600080fd5b8301601f810185136110b857600080fd5b6110c785823560208401610ff5565b9150509250929050565b6000602082840312156110e357600080fd5b610cd882610f5c565b600080604083850312156110ff57600080fd5b61110883610f5c565b91506020830135801515811461111d57600080fd5b809150509250929050565b6000806000806080858703121561113e57600080fd5b61114785610f5c565b935061115560208601610f5c565b925060408501359150606085013567ffffffffffffffff81111561117857600080fd5b8501601f8101871361118957600080fd5b61119887823560208401610ff5565b91505092959194509250565b600080604083850312156111b757600080fd5b6111c083610f5c565b91506111ce60208401610f5c565b90509250929050565b600181811c908216806111eb57607f821691505b60208210810361120b57634e487b7160e01b600052602260045260246000fd5b50919050565b60006001820161123157634e487b7160e01b600052601160045260246000fd5b5060010190565b601f82111561041a57806000526020600020601f840160051c8101602085101561125f5750805b601f840160051c820191505b818110156109e8576000815560010161126b565b815167ffffffffffffffff81111561129957611299610fdf565b6112ad816112a784546111d7565b84611238565b6020601f8211600181146112e157600083156112c95750848201515b600019600385901b1c1916600184901b1784556109e8565b600084815260208120601f198516915b8281101561131157878501518255602094850194600190920191016112f1565b508482101561132f5786840151600019600387901b60f8161c191681555b50505050600190811b01905550565b6001600160a01b038581168252841660208201526040810183905260806060820181905260009061137190830184610f04565b9695505050505050565b60006020828403121561138d57600080fd5b8151610cd881610ead565b600083516113aa818460208801610ee0565b8351908301906113be818360208801610ee0565b0194935050505056fea2646970667358221220b39197dcec9b36ce1782686d93cf1f513f4f99abf199c3a183e4b8c29c2227a264736f6c634300081c0033",
  "linkReferences": {},
  "deployedLinkReferences": {}
}